{
  "contractName": "Decentragram",
  "abi": [
    {
      "anonymous": false,
      "inputs": [
        {
          "indexed": false,
          "internalType": "uint256",
          "name": "_id",
          "type": "uint256"
        },
        {
          "indexed": false,
          "internalType": "string",
          "name": "_hash",
          "type": "string"
        },
        {
          "indexed": false,
          "internalType": "string",
          "name": "_description",
          "type": "string"
        },
        {
          "indexed": false,
          "internalType": "uint256",
          "name": "_tipAmount",
          "type": "uint256"
        },
        {
          "indexed": false,
          "internalType": "address payable",
          "name": "_author",
          "type": "address"
        }
      ],
      "name": "eventImageCreated",
      "type": "event"
    },
    {
      "anonymous": false,
      "inputs": [
        {
          "indexed": false,
          "internalType": "uint256",
          "name": "_id",
          "type": "uint256"
        },
        {
          "indexed": false,
          "internalType": "string",
          "name": "_hash",
          "type": "string"
        },
        {
          "indexed": false,
          "internalType": "string",
          "name": "_description",
          "type": "string"
        },
        {
          "indexed": false,
          "internalType": "uint256",
          "name": "_tipAmount",
          "type": "uint256"
        },
        {
          "indexed": false,
          "internalType": "address payable",
          "name": "_author",
          "type": "address"
        }
      ],
      "name": "eventImageTipped",
      "type": "event"
    },
    {
      "constant": true,
      "inputs": [
        {
          "internalType": "uint256",
          "name": "",
          "type": "uint256"
        }
      ],
      "name": "idImages",
      "outputs": [
        {
          "internalType": "uint256",
          "name": "id",
          "type": "uint256"
        },
        {
          "internalType": "string",
          "name": "_hash",
          "type": "string"
        },
        {
          "internalType": "string",
          "name": "description",
          "type": "string"
        },
        {
          "internalType": "uint256",
          "name": "tipAmount",
          "type": "uint256"
        },
        {
          "internalType": "address payable",
          "name": "author",
          "type": "address"
        }
      ],
      "payable": false,
      "stateMutability": "view",
      "type": "function"
    },
    {
      "constant": true,
      "inputs": [],
      "name": "imageCount",
      "outputs": [
        {
          "internalType": "uint256",
          "name": "",
          "type": "uint256"
        }
      ],
      "payable": false,
      "stateMutability": "view",
      "type": "function"
    },
    {
      "constant": true,
      "inputs": [],
      "name": "name",
      "outputs": [
        {
          "internalType": "string",
          "name": "",
          "type": "string"
        }
      ],
      "payable": false,
      "stateMutability": "view",
      "type": "function"
    },
    {
      "constant": false,
      "inputs": [
        {
          "internalType": "string",
          "name": "_imageHash",
          "type": "string"
        },
        {
          "internalType": "string",
          "name": "_description",
          "type": "string"
        }
      ],
      "name": "uploadImage",
      "outputs": [],
      "payable": false,
      "stateMutability": "nonpayable",
      "type": "function"
    },
    {
      "constant": false,
      "inputs": [
        {
          "internalType": "uint256",
          "name": "_id",
          "type": "uint256"
        }
      ],
      "name": "tipImageOwner",
      "outputs": [],
      "payable": true,
      "stateMutability": "payable",
      "type": "function"
    }
  ],
  "bytecode": "0x60806040526040518060400160405280600c81526020017f446576656e7472616772616d00000000000000000000000000000000000000008152506000908051906020019061004f929190610067565b50600060015534801561006157600080fd5b5061010c565b828054600181600116156101000203166002900490600052602060002090601f016020900481019282601f106100a857805160ff19168380011785556100d6565b828001600101855582156100d6579182015b828111156100d55782518255916020019190600101906100ba565b5b5090506100e391906100e7565b5090565b61010991905b808211156101055760008160009055506001016100ed565b5090565b90565b610fec8061011b6000396000f3fe60806040526004361061004a5760003560e01c806306fdde031461004f5780631c1fd6db146100df5780638567ade81461024057806392053b631461026e578063a91b831414610299575b600080fd5b34801561005b57600080fd5b506100646103f8565b6040518080602001828103825283818151815260200191508051906020019080838360005b838110156100a4578082015181840152602081019050610089565b50505050905090810190601f1680156100d15780820380516001836020036101000a031916815260200191505b509250505060405180910390f35b3480156100eb57600080fd5b506101186004803603602081101561010257600080fd5b8101908080359060200190929190505050610496565b6040518086815260200180602001806020018581526020018473ffffffffffffffffffffffffffffffffffffffff1673ffffffffffffffffffffffffffffffffffffffff168152602001838103835287818151815260200191508051906020019080838360005b8381101561019a57808201518184015260208101905061017f565b50505050905090810190601f1680156101c75780820380516001836020036101000a031916815260200191505b50838103825286818151815260200191508051906020019080838360005b838110156102005780820151818401526020810190506101e5565b50505050905090810190601f16801561022d5780820380516001836020036101000a031916815260200191505b5097505050505050505060405180910390f35b61026c6004803603602081101561025657600080fd5b810190808035906020019092919050505061061c565b005b34801561027a57600080fd5b50610283610ae4565b6040518082815260200191505060405180910390f35b3480156102a557600080fd5b506103f6600480360360408110156102bc57600080fd5b81019080803590602001906401000000008111156102d957600080fd5b8201836020820111156102eb57600080fd5b8035906020019184600183028401116401000000008311171561030d57600080fd5b91908080601f016020809104026020016040519081016040528093929190818152602001838380828437600081840152601f19601f8201169050808301925050505050505091929192908035906020019064010000000081111561037057600080fd5b82018360208201111561038257600080fd5b803590602001918460018302840111640100000000831117156103a457600080fd5b91908080601f016020809104026020016040519081016040528093929190818152602001838380828437600081840152601f19601f820116905080830192505050505050509192919290505050610aea565b005b60008054600181600116156101000203166002900480601f01602080910402602001604051908101604052809291908181526020018280546001816001161561010002031660029004801561048e5780601f106104635761010080835404028352916020019161048e565b820191906000526020600020905b81548152906001019060200180831161047157829003601f168201915b505050505081565b6002602052806000526040600020600091509050806000015490806001018054600181600116156101000203166002900480601f0160208091040260200160405190810160405280929190818152602001828054600181600116156101000203166002900480156105485780601f1061051d57610100808354040283529160200191610548565b820191906000526020600020905b81548152906001019060200180831161052b57829003601f168201915b505050505090806002018054600181600116156101000203166002900480601f0160208091040260200160405190810160405280929190818152602001828054600181600116156101000203166002900480156105e65780601f106105bb576101008083540402835291602001916105e6565b820191906000526020600020905b8154815290600101906020018083116105c957829003601f168201915b5050505050908060030154908060040160009054906101000a900473ffffffffffffffffffffffffffffffffffffffff16905085565b60008111801561062e57506001548111155b6106a0576040517f08c379a000000000000000000000000000000000000000000000000000000000815260040180806020018281038252600f8152602001807f546865206964206e6f206578697374000000000000000000000000000000000081525060200191505060405180910390fd5b6106a8610ecd565b600260008381526020019081526020016000206040518060a001604052908160008201548152602001600182018054600181600116156101000203166002900480601f0160208091040260200160405190810160405280929190818152602001828054600181600116156101000203166002900480156107695780601f1061073e57610100808354040283529160200191610769565b820191906000526020600020905b81548152906001019060200180831161074c57829003601f168201915b50505050508152602001600282018054600181600116156101000203166002900480601f01602080910402602001604051908101604052809291908181526020018280546001816001161561010002031660029004801561080b5780601f106107e05761010080835404028352916020019161080b565b820191906000526020600020905b8154815290600101906020018083116107ee57829003601f168201915b50505050508152602001600382015481526020016004820160009054906101000a900473ffffffffffffffffffffffffffffffffffffffff1673ffffffffffffffffffffffffffffffffffffffff1673ffffffffffffffffffffffffffffffffffffffff168152505090506000816080015190508073ffffffffffffffffffffffffffffffffffffffff166108fc349081150290604051600060405180830381858888f193505050501580156108c5573d6000803e3d6000fd5b50348260600151018260600181815250508160026000858152602001908152602001600020600082015181600001556020820151816001019080519060200190610910929190610f12565b50604082015181600201908051906020019061092d929190610f12565b506060820151816003015560808201518160040160006101000a81548173ffffffffffffffffffffffffffffffffffffffff021916908373ffffffffffffffffffffffffffffffffffffffff1602179055509050507fbc927b8e8295692ff59d648aa10cceded8bc24675f08aeb6dc2f155e29f3559f8383602001518460400151856060015186608001516040518086815260200180602001806020018581526020018473ffffffffffffffffffffffffffffffffffffffff1673ffffffffffffffffffffffffffffffffffffffff168152602001838103835287818151815260200191508051906020019080838360005b83811015610a3a578082015181840152602081019050610a1f565b50505050905090810190601f168015610a675780820380516001836020036101000a031916815260200191505b50838103825286818151815260200191508051906020019080838360005b83811015610aa0578082015181840152602081019050610a85565b50505050905090810190601f168015610acd5780820380516001836020036101000a031916815260200191505b5097505050505050505060405180910390a1505050565b60015481565b6000825111610b61576040517f08c379a00000000000000000000000000000000000000000000000000000000081526004018080602001828103825260128152602001807f456d707479206861736820696e76616c6964000000000000000000000000000081525060200191505060405180910390fd5b6000815111610bd8576040517f08c379a00000000000000000000000000000000000000000000000000000000081526004018080602001828103825260198152602001807f456d707479206465736372697074696f6e20696e76616c69640000000000000081525060200191505060405180910390fd5b600073ffffffffffffffffffffffffffffffffffffffff163373ffffffffffffffffffffffffffffffffffffffff161415610c7b576040517f08c379a00000000000000000000000000000000000000000000000000000000081526004018080602001828103825260128152602001807f4164647265737320697320696e76616c6964000000000000000000000000000081525060200191505060405180910390fd5b6001600081548092919060010191905055506040518060a001604052806001548152602001838152602001828152602001600081526020013373ffffffffffffffffffffffffffffffffffffffff168152506002600060018152602001908152602001600020600082015181600001556020820151816001019080519060200190610d07929190610f12565b506040820151816002019080519060200190610d24929190610f12565b506060820151816003015560808201518160040160006101000a81548173ffffffffffffffffffffffffffffffffffffffff021916908373ffffffffffffffffffffffffffffffffffffffff1602179055509050507f055e81372f6326655cb465b31f1537615fa7bbd9c773201af60ec21e4f3c57e160015483836000336040518086815260200180602001806020018581526020018473ffffffffffffffffffffffffffffffffffffffff1673ffffffffffffffffffffffffffffffffffffffff168152602001838103835287818151815260200191508051906020019080838360005b83811015610e24578082015181840152602081019050610e09565b50505050905090810190601f168015610e515780820380516001836020036101000a031916815260200191505b50838103825286818151815260200191508051906020019080838360005b83811015610e8a578082015181840152602081019050610e6f565b50505050905090810190601f168015610eb75780820380516001836020036101000a031916815260200191505b5097505050505050505060405180910390a15050565b6040518060a0016040528060008152602001606081526020016060815260200160008152602001600073ffffffffffffffffffffffffffffffffffffffff1681525090565b828054600181600116156101000203166002900490600052602060002090601f016020900481019282601f10610f5357805160ff1916838001178555610f81565b82800160010185558215610f81579182015b82811115610f80578251825591602001919060010190610f65565b5b509050610f8e9190610f92565b5090565b610fb491905b80821115610fb0576000816000905550600101610f98565b5090565b9056fea265627a7a72315820edd386fbe01185a4d69553f91eada8f8c81eeb6785a67a5550ef3938c6a2e41364736f6c63430005100032",
  "source": "// SPDX-License-Identifier: MIT\npragma solidity ^0.5.0;\n\ncontract Decentragram {\n  string public name = \"Deventragram\";\n  \n  // Image counter\n  uint public imageCount = 0;\n  \n  // Store Images\n  struct Image{\n    uint id;\n    string _hash;\n    string description;\n    uint tipAmount;\n    address payable author;\n  }\n  \n  mapping(uint => Image) public idImages;\n\n  // Events\n  event eventImageCreated(\n    uint _id,\n    string _hash,\n    string _description,\n    uint _tipAmount,\n    address payable _author\n  );\n\n  event eventImageTipped(\n    uint _id,\n    string _hash,\n    string _description,\n    uint _tipAmount,\n    address payable _author  \n  );\n  \n\n  // Create an image\n  function uploadImage(string memory _imageHash, string memory _description) public {\n    require(bytes(_imageHash).length > 0, \"Empty hash invalid\");\n    require(bytes(_description).length > 0, \"Empty description invalid\");\n    require(msg.sender != address(0x0), \"Address is invalid\");\n\n    // Increment one to imageCounter\n    imageCount++; \n    idImages[1] = Image(imageCount,_imageHash, _description, 0,msg.sender);\n\n    emit eventImageCreated(imageCount, _imageHash, _description, 0, msg.sender);\n  }\n\n  function tipImageOwner(uint _id) public payable {\n    require(_id > 0 && _id <= imageCount,\"The id no exist\");\n    Image memory image = idImages[_id];\n    address payable _auther = image.author;\n    address(_auther).transfer(msg.value);\n\n    image.tipAmount = image.tipAmount + msg.value;\n    idImages[_id] = image;\n\n    emit eventImageTipped(_id, image._hash, image.description, image.tipAmount, image.author);\n\n  }\n\n}",
  "sourcePath": "/home/vero/Documents/Work/Dapp/2022/decentragram/src/contracts/Decentragram.sol",
  "compiler": {
    "name": "solc",
    "version": "0.5.16+commit.9c3226ce.Emscripten.clang"
  },
  "schemaVersion": "3.4.5",
  "updatedAt": "2022-03-10T02:01:39.294Z",
  "networkType": "ethereum",
  "devdoc": {
    "methods": {}
  },
  "userdoc": {
    "methods": {}
  }
}